MR4111750120418PC0110001100                                                                                                                                                                                                                                                                                                     
MR5011                                                                                                                                                                                                                                                                                                                          
MR10007         0055                              01111800000000999999                                                                                                                                                                                                                                                          
MR200000100000014548                            JOHN PATRICK FLYNN              63 RIDGWAY ST WHANGANUI         2OLD PROVINCIAL IN F/PTH, RIGHT OF ENTRANCE                                                                                                                                                                     
MR30000A      G7437369                        00000000150000010000000006800000000600000000020000000001200000225450000000000000040092618  00000000000000000000      00                                                                                                                                                           
MR200000100000051790                             AXIAM METALS LIMITED           50 KELVIN ST WHANGANUI          2AXIAM  (1) METER BY FENCE                                                                                                                                                                                      
MR30000A      G941150303                      00000000460000010000001607900000141870000004729000000283700001628130000000000009458092618  00000000000000000000      00                                                                                                                                                           
MR200000100000051790                             AXIAM METALS LIMITED           50 KELVIN ST WHANGANUI          2AXIAM  (1) METER BY FENCE                                                                                                                                                                                      
MR30000A      G948641703                      00000000550000010000000123900000010940000000365000000021900000282300000000000000729092618  00000000000000000000      00                                                                                                                                                           
MR200000100000033662                             EDUCATION MINISTRY             114 ANZAC PDE WHANGANUI         2GIRLS COLLEGE - (1A) BEHIND 120 ANZAC PDE IN MH 2M LH BOUNDARY IN ANZAC PDE (WITH 100009699)                                                                                                                   
MR30000A      G100008535                      00000001060000010000000010900000000960000000032000000001900000189270000000000000064092618  00000000000000000000      00                                                                                                                                                           
MR200000100000033662                             EDUCATION MINISTRY             114 ANZAC PDE WHANGANUI         2GIRLS COLLEGE - (1) BEHIND 120 ANZAC PDE - IN MANHOLE IN CROSSING BY HOSTEL 2M LH BOUNDARY IN ANZAC PDE (WITH 100008535))                                                                                      
MR30000A      G100009699                      00000001150000010000000045700000004040000000135000000008100000226750000000000000269092618  00000000000000000000      00                                                                                                                                                           
MR200000100000033662                             EDUCATION MINISTRY             114 ANZAC PDE WHANGANUI         2GIRLS COLLEGE - (2) NEAR THE TENNIS COURTS                                                                                                                                                                     
MR30000A      G800498496                      00000001260000010000000000900000000080000000003000000000200000123790000000000000005092618  00000000000000000000      00                                                                                                                                                           
MR200000100000033662                             EDUCATION MINISTRY             114 ANZAC PDE WHANGANUI         2GIRLS COLLEGE - (4) IN METER BOX OPP 26 JONES ST                                                                                                                                                               
MR30000A      G950442903                      00000001360000010000000002200000000200000000007000000000400000024310000000000000013092618  00000000000000000000      00                                                                                                                                                           
MR200000100000033662                             EDUCATION MINISTRY             114 ANZAC PDE WHANGANUI         2GIRLS COLLEGE - (3) IN AN ABOVE GROUND CAGE 74.4M RH BOUNDARY OPP RICHMOND ST                                                                                                                                  
MR30000A      G15748129                       00000001450000010000000050300000004440000000148000000008900000028570000000000000296092618  00000000000000000000      00                                                                                                                                                           
MR200000100000033662                             EDUCATION MINISTRY             114 ANZAC PDE WHANGANUI         2GIRLS COLLEGE - (3A) IN AN ABOVE GROUND CAGE 74.4M RH BOUNDARY OPP RICHMOND ST                                                                                                                                 
MR30000A      G15756931                       00000001560000010000000002600000000230000000008000000000500000001930000000000000015092618  00000000000000000000      00                                                                                                                                                           
MR200000100000007370                             MINISTRY OF EDUCATION          57 CAMPBELL ST WHANGANUI        2OLD UCOL - (5) COMBO METER -  UNDER S/PLATE IN CHAMBER A/SIDE BUILDING IN PROPERTY IN WICKSTEED ST                                                                                                             
MR30000A      G989237906                      00000003060000010000000002400000000210000000007000000000400000051870000000000000014092718  00000000000000000000      00                                                                                                                                                           
MR200000100000007370                             MINISTRY OF EDUCATION          57 CAMPBELL ST WHANGANUI        2OLD UCOL - (4) UNDER S/PLATE IN CHAMBER A/SIDE BLDNG IN PROPERTY IN WICKSTEED ST                                                                                                                               
MR30000A      G989315106                      00000003150000010000000066100000005840000000195000000011700000519860000000000000389092718  00000000000000000000      00                                                                                                                                                           
MR200000100000007370                             MINISTRY OF EDUCATION          57 CAMPBELL ST WHANGANUI        2OLD UCOL - (1) IN VALVE BOX BY FIRE HYDRANT OUTSIDE NO 53 CAMPBELL ST                                                                                                                                          
MR30000A      G17MC231614                     00000003250000010000000003600000000320000000011000000000600000007170000000000000021092718  00000000000000000000      00                                                                                                                                                           
MR200000100000007370                             MINISTRY OF EDUCATION          57 CAMPBELL ST WHANGANUI        2OLD UCOL - (3) IN F/PATH - 93 BELL ST  17M RH BOUNDARY                                                                                                                                                         
MR30000A      G13MC179121                     00000003350000010000000006800000000600000000020000000001200000017380000000000000040092718  00000000000000000000      00                                                                                                                                                           
MR200000100000007370                             MINISTRY OF EDUCATION          57 CAMPBELL ST WHANGANUI        2AKORANGA CHILD CARE - UCOL- (6) 107 BELL ST IN METER BOX 13M FROM RH BOUNDARY                                                                                                                                  
MR30000A      G081525508                      00000003450000010000000000000000000000000000000000000000000000043190000000000000000092718  00000000000000000000      00                                                                                                                                                           
MR200000100000007370                             MINISTRY OF EDUCATION          57 CAMPBELL ST WHANGANUI        2OLD UCOL - (2A) IN METER BOX RH SIDE OF CROSSING IN LIVERPOOL ST OPP 92 LIVERPOOL ST (WITH 080101673)                                                                                                          
MR30000A      G080101703                      00000003550000010000000015800000001400000000047000000002800000157110000000000000093092718  00000000000000000000      00                                                                                                                                                           
MR200000100000007370                             MINISTRY OF EDUCATION          57 CAMPBELL ST WHANGANUI        2OLD UCOL - (2B) IN METER BOX RH SIDE OF CROSSING IN LIVERPOOL ST OPP 92 LIVERPOOL ST (WITH 080101703)                                                                                                          
MR30000A      G080101673                      00000003660000010000000000000000000000000000000000000000000000002460000000000000000092718  00000000000000000000      00                                                                                                                                                           
MR200000100000033393                             WHANGANUI DISTRICT COUNCIL     G F MOORE DR WHANGANUI          2SPLASH CENTRE - IN MH BY SIDE DOOR BY CONTAINER (WITH METER # 100042477)                                                                                                                                       
MR30000A      G100043362                      00000004060000010000000435900000038460000001282000000076900001156650000000000002564092718  00000000000000000000      00                                                                                                                                                           
MR200000100000033393                             WHANGANUI DISTRICT COUNCIL     G F MOORE DR WHANGANUI          2SPLASH CENTRE - IN MH BY SIDE DOOR BY CONTAINER (WITH METER # 100043362)                                                                                                                                       
MR30000A      G100042477                      00000004150000010000000000000000000000000000000000000000000000424320000000000000000092718  00000000000000000000      00                                                                                                                                                           
MR200000100000033393                             WHANGANUI DISTRICT COUNCIL     G F MOORE DR WHANGANUI          2SPLASH CENTRE - OUTSIDE SPLASH CENTRE SIDE DOOR ABOVE GROUND                                                                                                                                                   
MR30000A      G04250972                       00000004250000010000000001400000000120000000004000000000200000008110000000000000008092718  00000000000000000000      00                                                                                                                                                           
MR200000100000006806                             WHANGANUI DISTRICT COUNCIL     216 GUYTON ST WHANGANUI         2SPRIGGENS PARK - IN METER BOX BY GATE IN CORNER IN SARJEANT ST                                                                                                                                                 
MR30000A      G0000027                        00000004560000010000000202600000017880000000596000000035800001748330000000000001192092718  00000000000000000000      00                                                                                                                                                           
MR200000100000006806                             WHANGANUI DISTRICT COUNCIL     216 GUYTON ST WHANGANUI         2SPRIGGENS PARK - IN X-ING TO NO:23 HATRICK ST                                                                                                                                                                  
MR30000A      GFC000367-01                    00000004650000010000000017000000001500000000050000000003000000004610000000000000100092718  00000000000000000000      00                                                                                                                                                           
MR200000100000029878                             WHANGANUI DISTRICT HEALTH BOARD100 HEADS RD WHANGANUI          2HOSPITAL - (1) IN AN ABOVE GROUND CAGE OFF CARPARK RH SIDE BEHIND NO 3 KOROMIKO RD                                                                                                                             
MR30000A      G1540880                        00000005150000010000000045600000004020000000134000000008000000138820000000000000268092718  00000000000000000000      00                                                                                                                                                           
MR200000100000029878                             WHANGANUI DISTRICT HEALTH BOARD100 HEADS RD WHANGANUI          2HOSPITAL - (1A) IN AN ABOVE GROUND CAGE BEHIND HOUSE RIGHT HAND SIDE OFF CARPARKS                                                                                                                              
MR30000A      G951587803                      00000005270000010000000000200000000020000000001000000000000000009460000000000000001092718  00000000000000000000      00                                                                                                                                                           
MR200000100000029878                             WHANGANUI DISTRICT HEALTH BOARD100 HEADS RD WHANGANUI          2HOSPITAL - (2A) IN AN ABOVE GROUND CAGE OFF CARPARK LH SIDE BY HELI-PAD                                                                                                                                        
MR30000A      G070092235                      00000005350000010000000029200000002580000000086000000005200000040400000000000000172092718  00000000000000000000      00                                                                                                                                                           
MR200000100000029878                             WHANGANUI DISTRICT HEALTH BOARD100 HEADS RD WHANGANUI          2HOSPITAL - (2) IN AN ABOVE GROUND CAGE OFF CARPARK LH SIDE BY HELI-PAD                                                                                                                                         
MR30000A      G070085109                      00000005460000010000000000000000000000000000000000000000000000000970000000000000000092718  00000000000000000000      00                                                                                                                                                           
MR200000100000029878                             WHANGANUI DISTRICT HEALTH BOARD100 HEADS RD WHANGANUI          2HOSPITAL - (3A) IN AN ABOVE GROUND CAGE OPP 81 HEADS RD                                                                                                                                                        
MR30000A      G1640924                        00000005550000010000000338000000029820000000994000000059600000479230000000000001988092718  00000000000000000000      00                                                                                                                                                           
MR200000100000029878                             WHANGANUI DISTRICT HEALTH BOARD100 HEADS RD WHANGANUI          2HOSPITAL - (3) IN AN ABOVE GROUND CAGE OPP 81 HEADS RD                                                                                                                                                         
MR30000A      G962442305                      00000005670000010000000002600000000230000000008000000000500000029960000000000000015092718  00000000000000000000      00                                                                                                                                                           
MR200000100000029878                             WHANGANUI DISTRICT HEALTH BOARD100 HEADS RD WHANGANUI          2HOSPITAL - (4) IN AN ABOVE GROUND CAGE OPP 109 HEADS RD                                                                                                                                                        
MR30000A      G1640927                        00000005750000010000000068700000006060000000202000000012100000565250000000000000404092718  00000000000000000000      00                                                                                                                                                           
MR200000100000029878                             WHANGANUI DISTRICT HEALTH BOARD100 HEADS RD WHANGANUI          2HOSPITAL - (4A) IN AN ABOVE GROUND CAGE RH SIDE OF OFFICES IN HEADS RD  OPP 109 HEADS RD                                                                                                                       
MR30000A      G977297805                      00000005870000010000000018700000001650000000055000000003300000041460000000000000110092718  00000000000000000000      00                                                                                                                                                           
MR200000100000029878                             WHANGANUI DISTRICT HEALTH BOARD100 HEADS RD WHANGANUI          2HOSPITAL (5) OPPOSITE 111 HEADS RD IN AN ABOVE GROUND CAGE LH SIDE CROSSING - FEEDS FLATS AND LAUNDRY                                                                                                          
MR30000A      G172501756                      00000005950000010000000007300000000650000000022000000001300000002210000000000000043092718  00000000000000000000      00                                                                                                                                                           
MR200000100000072940                             AFFCO NEW ZEALAND LIMITED (SPO 57 BALGOWNIE AVE WHANGANUI      2AFFCO - PAST RAILWAY LINE LEFT OF X-ING ENTRANCE HEADS RD OPP GUNN ST - BY IMLAY SHOP (FEEDS COOLSTORE AND BUTCHERS SHOP ONLY)                                                                                 
MR30000A      G085672126                      00000006070000010000000000000000000000000000000000000000000000942580000000000000000092718  00000000000000000000      00                                                                                                                                                           
MR200000100000061230                             OPEN COUNTRY DAIRY LIMITED     241 HEADS RD WHANGANUI          2OPEN COUNTRY - IN AN ABOVE GROUND CAGE BEHIND FENCE BY GATE OPP 240 HEADS RD (WITH 080136932)                                                                                                                  
MR30000A      G080146913                      00000006150000010000000000700000000060000000002000000000100000272290000000000000004092718  00000000000000000000      00                                                                                                                                                           
MR200000100000061230                             OPEN COUNTRY DAIRY LIMITED     241 HEADS RD WHANGANUI          2OPEN COUNTRY - IN AN ABOVE GROUND CAGE BEHIND FENCE BY GATE OPP 240 HEADS RD (WITH 080146913)                                                                                                                  
MR30000A      G080136932                      00000006260000010000002645900000233460000007782000000466900000810400000000000015564092718  00000000000000000000      00                                                                                                                                                           
MR200000100000072940                             AFFCO NEW ZEALAND LIMITED (SPO 57 BALGOWNIE AVE WHANGANUI      2AFFCO - IN PADDOCK BESIDE MILK TREATMENT PLANT IN AN ABOVE GROUND CAGE OPP ABOTT ST (COMBO METER WITH 090043448)                                                                                               
MR30000A      G1440823                        00000006350000010000000157600000013910000000464000000027800000647630000000000000927092718  00000000000000000000      00                                                                                                                                                           
MR200000100000072940                             AFFCO NEW ZEALAND LIMITED (SPO 57 BALGOWNIE AVE WHANGANUI      2AFFCO - IN PADDOCK BESIDE MILK TREATMENT PLANT IN AN ABOVE GROUND CAGE OPP ABOTT ST (COMBO METER WITH 1440823)                                                                                                 
MR30000A      G090043448                      00000006470000010000006686800000590010000019667000001180000045734560000000000039334092718  00000000000000000000      00                                                                                                                                                           
MR200000100000072940                             AFFCO NEW ZEALAND LIMITED (SPO 57 BALGOWNIE AVE WHANGANUI      2AFFCO - 55 BALGOWNIE AVE IN ABOVEGROUND CAGE INSIDE FENCE AT END OF BALGOWNIE AVE WITH COMBO METER 0840526                                                                                                     
MR30000A      G080000395                      00000006570000010000000072900000006440000000215000000012900000722650000000000000429092718  00000000000000000000      00                                                                                                                                                           
MR200000100000072940                             AFFCO NEW ZEALAND LIMITED (SPO 57 BALGOWNIE AVE WHANGANUI      2AFFCO - 55 BALGOWNIE AVE IN ABOVEGROUND CAGE INSIDE FENCE AT END OF BALGOWNIE AVE WITH COMBO METER 080000395                                                                                                   
MR30000A      G0840526                        00000006650000010000000046900000004140000000138000000008300000294740000000000000276092718  00000000000000000000      00                                                                                                                                                           
MR200000100000072940                             AFFCO NEW ZEALAND LIMITED (SPO 57 BALGOWNIE AVE WHANGANUI      2AFFCO - OVER FENCE IN PADDOCK BEACH RD BY POWER SUB STATION - OPP BEACH RD PUMP STATION                                                                                                                        
MR30000A      G13033891                       00000006760000010000000037200000003290000000110000000006600000410980000000000000219092718  00000000000000000000      00                                                                                                                                                           
MR200000100000003241                             CASTLECLIFF PROPERTIES LIMITED 19 LEAMINGTON ST WHANGANUI      2CAVALIER - IN AN ABOVE GROUND CAGE 25M LH BOUNDARY (COMBO WITH 080013081)                                                                                                                                      
MR30000A      G0840534                        00000007050000010000000148900000013140000000438000000026300000323580000000000000876092718  00000000000000000000      00                                                                                                                                                           
MR200000100000003241                             CASTLECLIFF PROPERTIES LIMITED 19 LEAMINGTON ST WHANGANUI      2CAVALIER - IN AN ABOVE GROUND CAGE 25M LH BOUNDARY (COMBO WITH 0840534)                                                                                                                                        
MR30000A      G080013081                      00000007170000010000000035400000003120000000104000000006200004510980000000000000208092718  00000000000000000000      00                                                                                                                                                           
MR200000100000003271                             THE TASMAN TANNING COMPANY LIMI325 HEADS RD WHANGANUI          2TASMAN TANNING - HEADS RD ACCESS - RIGHT OF XING IN CAGE (WITH METER # 120075696)                                                                                                                              
MR30000A      G12211643                       00000008060000010000000306900000027080000000903000000054200000985700000000000001805092718  00000000000000000000      00                                                                                                                                                           
MR200000100000003271                             THE TASMAN TANNING COMPANY LIMI325 HEADS RD WHANGANUI          2TASMAN TANNING - HEADS RD ACCESS - RIGHT OF XING IN CAGE (WITH METER # 12211643)                                                                                                                               
MR30000A      G120075696                      00000008170000010000001540000000135890000004530000000271800003038620000000000009059092718  00000000000000000000      00                                                                                                                                                           
MR200000100000003271                             THE TASMAN TANNING COMPANY LIMI325 HEADS RD WHANGANUI          2TASMAN TANNING - IN CAGE INSIDE FENCE AT REAR OF FACTORY KORORO RD - GO TO OFFICE BEFORE READING METER                                                                                                         
MR30000A      G17705973                       00000008270000010000001191200000105110000003504000000210200002027290000000000007007092718  00000000000000000000      00                                                                                                                                                           
MR200000100000003271                             THE TASMAN TANNING COMPANY LIMI325 HEADS RD WHANGANUI          2TASMAN TANNING - TOD ST - IN VALVE CASTING RH SIDE OF DRIVEWAY (WITH METER # 13008043);;                                                                                                                       
MR30000A      G120121478                      00000008450000010000000063200000005580000000186000000011200000254880000000000000372092718  00000000000000000000      00                                                                                                                                                           
MR200000100000003271                             THE TASMAN TANNING COMPANY LIMI325 HEADS RD WHANGANUI          2TASMAN TANNING - TOD ST - IN VALVE CASTING RH SIDE OF DRIVEWAY (WITH METER # 120121478)                                                                                                                        
MR30000A      G13008043                       00000008560000010000000128500000011340000000378000000022700004442840000000000000756092718  00000000000000000000      00                                                                                                                                                           
MR200000100000001069                             WANGANUI COLDSTORAGE LTD       1 GILBERD ST WHANGANUI          2ICEPAK - LEFT OF X-ING IN CAGE                                                                                                                                                                                 
MR30000A      G9462520-03                     00000009060000010000000000000000000000000000000000000000000001772880000000000000000092718  00000000000000000000      00                                                                                                                                                           
MR200000100000001069                             WANGANUI COLDSTORAGE LTD       1 GILBERD ST WHANGANUI          2ICEPAK - LEFT OF X-ING IN CAGE                                                                                                                                                                                 
MR30000A      G9452915-03                     00000009150000010000000000900000000080000000003000000000200000306360000000000000005092718  00000000000000000000      00                                                                                                                                                           
MR200000100000001069                             WANGANUI COLDSTORAGE LTD       1 GILBERD ST WHANGANUI          2ICEPAK - BEHIND FENCE IN CAGE GILBERD ST                                                                                                                                                                       
MR30000A      G080013077                      00000009260000010000000291900000025760000000859000000051500002746160000000000001717092718  00000000000000000000      00                                                                                                                                                           
MR200000100000001069                             WANGANUI COLDSTORAGE LTD       1 GILBERD ST WHANGANUI          2ICEPAK - BEHIND FENCE IN CAGE GILBERD ST                                                                                                                                                                       
MR30000A      G080013184                      00000009350000010000000061900000005460000000182000000010900000353650000000000000364092718  00000000000000000000      00                                                                                                                                                           
MR200000100000064420                             LAND MEAT NEW ZEALAND  LIMITED 47 BRYCE ST WHANGANUI           2LAND MEAT - IN METER CAGE IN KIRK ST OPPOSITE MORRISON ST (COMBO WITH 13033909)                                                                                                                                
MR30000A      G1540862                        00000010050000010000000190600000016820000000561000000033600000299260000000000001121092718  00000000000000000000      00                                                                                                                                                           
MR200000100000064420                             LAND MEAT NEW ZEALAND  LIMITED 47 BRYCE ST WHANGANUI           2LAND MEAT - IN METER CAGE IN KIRK ST OPPOSITE MORRISON ST (COMBO WITH 1540862)                                                                                                                                 
MR30000A      G13033909                       00000010170000010000004551400000401600000013387000000803200004913970000000000026773092718  00000000000000000000      00                                                                                                                                                           
MR200000100000000283                             MARS NEW ZEALAND LIMITED       49 BRYCE ST WHANGANUI           2MARS - IN AN ABOVE GRND CAGE CNR KIRK ST/ MORRISON ST (COMBO WITH 080136933)                                                                                                                                   
MR30000A      G080146919                      00000010550000010000000000200000000020000000001000000000000000002860000000000000001092718  00000000000000000000      00                                                                                                                                                           
MR200000100000000283                             MARS NEW ZEALAND LIMITED       49 BRYCE ST WHANGANUI           2MARS - IN AN ABOVE GRND CAGE CNR KIRK ST/ MORRISON ST (COMBO WITH 080146919)                                                                                                                                   
MR30000A      G080136933a                     00000010660000010000000000000000000000000000000000000000000000007250000000000000000092718  00000000000000000000      00                                                                                                                                                           
MR200000100000000283                             MARS NEW ZEALAND LIMITED       49 BRYCE ST WHANGANUI           2MARS - BACK END OF BUILDING IN CAGE IN MORRISON ST                                                                                                                                                             
MR30000A      G912128400                      00000011060000010000001457200000128580000004286000000257200005413930000000000008572092718  00000000000000000000      00                                                                                                                                                           
MR200000100000000283                             MARS NEW ZEALAND LIMITED       49 BRYCE ST WHANGANUI           2MARS (REMOTE METER)  - ON CORNER KIRK ST NEXT TO FOOTPATH                                                                                                                                                      
MR30000A      G17MR0310000348                 00000011160000010000000003400000000300000000010000000000600000001290000000000000020092718  00000000000000000000      00                                                                                                                                                           
MR60007    00550055000000000                                                                                                                                                                                                                                                                                                    
MR70001000055000055                                                                                                                                                                                                                                                                                                             
MR9111751120418PC01 0001000055000055                                                                                                                                                                                                                                                                                            
